:1000000000020020D9030000290400003904000088
:1000100000000000000000000000000000000000E0
:100020000000000000000000000000006D03000060
:100030000000000000000000450300003D0100003A
:100040003D0100003D0100003D0100003D010000B8
:100050009D0D00003D0100003D0100003D0100003C
:100060003D010000110C00003D0100003D010000B9
:100070003D0100003D0100001B0C00003D0100009F
:100080003D0100003D010000BD0F000025100000F3
:100090003D0100003D0100003D0100003D01000068
:1000A0003D0100003D0100003D0100003D01000058
:1000B00010B500F0DDF910BD7047000070B50C0000
:1000C000060000F077F9094B094A1D682919914289
:1000D00002D8084A914204D20C23012533606D42B4
:1000E00000E0196000F06EF9280070BD00020020E9
:1000F00000800020980B002010B51900100000F0BF
:10010000C3F910BD10B51900100000F0D1F910BDF1
:100110001323036001204042704713230360012032
:100120004042704713230360012040427047002380
:10013000022203608A425B411800704710B500F04C
:1001400083F910BD70B500240F4B104E1C60104B8E
:100150003568186800F096F80E4B8000C3582000F0
:100160001B68083B9D420ED0A54204D02A79092A7B
:1001700001D101322A71092201201A710622995EE9
:10018000054A3360118070BD840200208C0200207B
:1001900058030020940200208802002030B5037923
:1001A000082917D9082B31D804004379184A9B0035
:1001B0009D580834002D04D02D6885609D582C6012
:1001C00000E08460D45001234479124AA3401468AB
:1001D00023431AE0082B19D944790D4BA400E258A7
:1001E000002A07D01568AA4202D10022E25001E09D
:1001F0002C6814604479A2009B58002B06D101336F
:10020000A340044A14689C4323001360017130BD6D
:10021000940200205803002010B5094B1B681A797E
:10022000082A02D95B79834209D900F0CEF8002868
:1002300003D00122034B1A6001E000F079F810BDF1
:100240008C0200208402002070B5002400F0B2F877
:10025000084B094A1B88094D1BB29B009C50084A59
:10026000210013682868013B1360FFF797FF2C609B
:1002700000F05AF888020020D40200208C020020EE
:100280009002002000230122104202D140080133D5
:10029000FAE7180070470000D318032293431F4A5F
:1002A00010B51C1F2260620703D0083B1C001C4BCA
:1002B00023608022231F52041A601A4A043B1860EC
:1002C000043B1A600022043B1A60043B03321A60AC
:1002D000043B013A1A60043B013A1A60043B19607E
:1002E0000632043B1A60043B013A1A60043B013AAF
:1002F0001A60043B013A1A60043B07321A60043B5F
:10030000013A1A60043B013A1A60043B013A1A6050
:100310002000032344385B42036010BD7777777772
:10032000888888884902000000F048F801DFFEE76D
:100330008021034A490553680B4353607047C04608
:1003400000ED00E0EFF30980EC4685464046494663
:1003500052465B46FFB4704601B46846E546024922
:100360000968086000F002F88C020020FFF7EAFE3E
:10037000EE46084800680068854601BC8446FFBC1C
:100380008046894692469B46684680F30988F54632
:10039000604700008C020020BFF34F8F034A044BDC
:1003A000DA60BFF34F8FC046FDE7C0460400FA0590
:1003B00000ED00E0EFF3108072B6704762B6EFF325
:1003C0001080704780F310887047EFF30580C0B24B
:1003D000704770477047000070B5FFF7FAFF0023C1
:1003E0000C480D490D4C1A188A4203D2E5580433C3
:1003F0001560F8E700210A4B0A4A934201D202C372
:10040000FBE7FFF7E7FF00F02FF901F045FD00F0F3
:10041000B9F970BD0002002084020020943700006A
:1004200084020020980B002010B50249042000F03F
:1004300025F9C046022D000010B50249052000F044
:100440001DF9C0460E2D000010B50249062000F02F
:1004500015F9C046212D000010B5034800F02CFE10
:10046000024800F055F910BD040200209C03002052
:100470000023E12110B5034A4902180000F04AFBAD
:1004800010BDC0465904000070B504000D002A00DC
:100490002100054800F0FAFD002804D1012103489D
:1004A00000F006F9F3E770BD040200209C03002071
:1004B00010B50C000A000100002000F0FBFA20003B
:1004C00010BD10B5012000F0CDFC10BD064B10B5DD
:1004D0001B680200002B06D1002800D10132002148
:1004E000012000F07FFC10BDA4030020F7B5002020
:1004F000214E224D3368070001333360204B214CDD
:100500001A6818602B68226019000194002908D02D
:100510003468A4468C68644503D80F00012009683C
:10052000F4E7002800D02960002F24D00021396092
:100530008A421ED01100002B04D050685C68A04293
:1005400000D91900080012681B68002A01D1036055
:100550000CE0002B01D1026008E054685E681500D1
:10056000B44200D91D0005602800ECE7019B19602A
:1005700001E0019A1360F7BDA8030020B00300203A
:10058000A0030020AC030020F8B501232C4E2D4C15
:1005900033602368002B06D1FFF7A8FFFFF791FF18
:1005A000431CFBD013E0FFF78CFF050010E05F68F1
:1005B000FFF787FF854211D887420FD93F1A132FC3
:1005C0000CD9FFF77EFF85420FD9FFF78FFF00257B
:1005D0002368002BEBD1F4E7B84226D223685F688A
:1005E000FFF76FFFA842F7D21FE02368002B07D068
:1005F0005F68FFF766FF143F14308742E8D30EE0D0
:10060000FFF75FFF07008542DFD80300143304D3F0
:10061000FFF757FF8742FBD9D7E701277F42002327
:1006200038003360FFF752FFF8BD23681A68186975
:10063000226000225A609A60DA689047C8E7C04694
:10064000A4030020AC03002010B50023044A054990
:10065000012000F045FC01204042FFF737FF10BDAC
:100660008905000040420F0010B50021024800F04B
:10067000F5FA00F049F910BD13440041094B10B5DB
:100680001A68002A07D1013207481A6001F0DEFC1F
:10069000064801F0DBFCFFF78DFE00F033F9FFF7B1
:1006A0007BFEC046B40300202F2D00004B2D000020
:1006B00070B505000C00FFF77DFE2B680600002BCF
:1006C00004D1013B2B60FFF77DFE19E0002C19D00F
:1006D0000E4B02211C682000FFF760FD2B680133E0
:1006E00005D1230008332B600023A36003E0210021
:1006F000280000F08DF83000FFF764FEFFF718FEC9
:10070000012002E0FFF75EFE200070BD8C02002099
:1007100070B50500FFF74EFE06002868002803D0DC
:10072000431C05D100232B603000FFF74BFE12E085
:1007300003680A212B6008380400FFF72FFD2B689F
:10074000002B01D1013B2B6064793000FFF73AFEAA
:100750002000FFF761FD70BD10B500F0D1FE034829
:1007600001F074FC00F032FE002010BD5E2D000090
:1007700010B5034B01201B6800F03CF9F9E7C046B7
:10078000B80A00201FB5FFF715FE002480210D4B8D
:100790000F221B68490002930B4B019400930B48F6
:1007A0000C2300F047F8C021094B07221B68C90041
:1007B0000293084B0194009307480C2300F03AF889
:1007C000FFF7B2FD1402002071070000B8030020FB
:1007D0001802002059070000B804002010B5FFF7E8
:1007E000E9FD094B1B681A79082A07D95B79074A82
:1007F0009B009958002901D009689950FFF7E2FD44
:10080000FFF796FD10BDC0468C0200209402002028
:100810000A0030B54C7908320368002B06D01D0061
:10082000083D6D79AC4201D31800F5E78B6002609A
:1008300030BD0000F0B585B00700019203930F2A88
:100840001FD80323034003D00422D31AC718C91AA0
:10085000243903230E009E430296FFF7ABFDBC191B
:1008600001230600254A19B2009199005558002D20
:100870000AD00133212BF6D13000FFF7A3FD8B20E6
:1008800000E01620404236E06B461B888C500A98E8
:10089000E3803A00029B0B99FFF7FEFC6B461B7945
:1008A000012163710123164A5B42E36113682060F2
:1008B00001331360039B2571A560E56025616561C7
:1008C000A56125620B4203D02000FFF767FC0EE014
:1008D0000A212000FFF762FC039B5B0707D430006E
:1008E000FFF770FD6B469888FFF796FC02E030003A
:1008F000FFF768FD009805B0F0BDC046D4020020A7
:10090000900200207047000010B502242E4A137890
:10091000A343137000F0F8FD0E2210212B4B2C483E
:100920009A619A690A439A614268224342609A69CD
:100930008A439A61274B284A196A0A4080211A6221
:100940001A6A8A431A621A6A40398A431A621A6A10
:1009500022431A620822D9681142FCD001221F49A1
:100960000A7048781D4A40B20028FADB1C489060A3
:100970001C4850601C4850804A7852B2002AFBDB69
:100980002F229A640F3ADA64184B1E3A1A70032326
:10099000174802781A42FCD080235B008B608423C6
:1009A0005B024B604B785BB2002BFBDBE020032348
:1009B000C00002001A4392B24A804A78D209FCD1A0
:1009C0000133232BF5D110BD00100040000400407E
:1009D0000040004100080040FFFCFFFF000C004009
:1009E0000108000001060100014100004408004028
:1009F0005008004000221A4B00B59A5604282DD802
:100A000000F0F6FF03060F1823000021197025E0FF
:100A100001210420197013490B6983430B610021E4
:100A200010E00221042019700E490B6983430B6109
:100A3000012107E00321042019700A490B6983434F
:100A40000B610221084B597005E00420054918701C
:100A50000B6903430B61BFF34F8F30BF100000BD24
:100A6000BC0A002000ED00E00004004010B50E4B71
:100A70000201D3581A7E520708D5198D0B4BC000BE
:100A80001A18C9B2C3585068984705E01A7E52B286
:100A9000002A01DA80221A76054B1B68002B01D050
:100AA000FFF79CFE10BDC046C02D0000C00A00200C
:100AB0008402002070B50125064C8A18000191427D
:100AC00007D003591E7E2E42FCD00E7801311E85C0
:100AD000F5E770BDC02D000004220B4B0001C35888
:100AE00010B5DB045B0F9C1EA24008481233016A5C
:100AF0000A4302628022D2011343054A538053788D
:100B00005BB2002BFBDB10BDC02D000000040040D9
:100B1000000C0040F0B587B0060004920593012850
:100B200067D8364B07013648FC5800F06BFF019040
:100B30003000FFF7D1FF314B0221DD196B6818003F
:100B4000029300F08BF82B7B02981900039300F0BE
:100B500069F8AD680021280000F080F803992800AA
:100B600000F060F80123254A2360E1691942FCD1B5
:100B7000C025D219937BAD021B042B401900537B77
:100B8000C0221B05920313401E4A0B4313432360EC
:100B900001980A2100F0BCFF0723A28919404B03EA
:100BA000D104C90C1943A18101980A2100F02AFF40
:100BB000A289C004C30C500B400318430423A08136
:100BC0006560E0691840FCD1022223680499134350
:100BD0000D4A2360F3009950D318059A5A600423F4
:100BE000A375E404640F0734033BA340074A136072
:100BF00001E00120404207B0F0BDC046C02D00001A
:100C000080C3C90104200040C00A002000E100E0C8
:100C100010B50020FFF72AFF10BD10B50120FFF727
:100C200025FF10BD1F22030070B50124934302402D
:100C30009D18224140359A182E78130020402643F3
:100C400080000E34844081402E7030331A78A243E5
:100C50001A701A781143C9B2197070BD1F230200AF
:100C600018409A431E3B10B5834007290FD88C07C4
:100C700001D5536000E093600624101840300C400A
:100C8000047053610020072903D1936101E0012022
:100C9000404210BD70B51400C2050500920F012A34
:100CA00043DC1F20224E52012840B2181656300055
:100CB000721C3CD01F48F2001350049B82185360F2
:100CC0002800FFF7CBFF00212800FFF7ABFF4021F2
:100CD000194A93690B439361184B194A5A805A7801
:100CE000D209FCD1174AF3109B009B1807220F2052
:100CF000324092009040944010229969814399615A
:100D000099690C439C61104B1A600F3AB2400D4B2D
:100D10001A61596911435961DA6002221A705A78CE
:100D200052B2002AFBDB002001E00120404270BDEE
:100D3000E02D0000D00A002000040040000C00401C
:100D4000054000000018004000E100E01F23020001
:100D50009A430340012098401168084201D013696A
:100D600000E0136A1840431E984170471F2301009A
:100D70000122994303409A408A6170471F23010072
:100D80000122994303409A404A6170471F230100A2
:100D90000122994303409A40CA61704770B500240C
:100DA00001252B00A3400C4A11690B4209D01361A5
:100DB000D2681A4205D0094BE20099184868D35806
:100DC00098470134102CECD1054B1B68002B01D047
:100DD000FFF704FD70BDC04600180040D00A002097
:100DE0008402002010B5002802D0012818D031E07C
:100DF000002909D001292DD12024184B92B2987BCB
:100E0000204398735A8320E01020144B92B2997BB0
:100E1000014399731A835A7B02435A730F381BE0BC
:100E2000002908D0012915D120240D4B987B20439F
:100E30009873DA6109E01024094B997B2143997377
:100E40009A615A7B22435A7306E05A7B0800224378
:100E50005A7301E00120404210BDC046002C004200
:100E600000300042002805D0012813D10A4B0B4A5C
:100E70005A8009E00A4B094A5A80DA7BD209FCD130
:100E8000074B188A80B206E0DA7BD209FCD1024B0C
:100E9000186900E000207047003000421080FFFF1A
:100EA000002C0042002803D0012806D1034A00E0AC
:100EB000034A022113880B4313807047003000421D
:100EC000002C0042002804D0012806D18022120301
:100ED00001E08022D202014B1A60704700E100E07D
:100EE00070B504002C48814253D12C492C484880CD
:100EF0004878C009FCD12B4D284845804878C00966
:100F0000FCD1002C02D0012C17D042E0264D20004D
:100F1000298889073FD4802624483601016A314355
:100F20000162012029880143298028881E49C007C1
:100F3000FBD40C250888A84315E01D4D2988890796
:100F400029D4802619487601016A31430162298833
:100F50002143298028881649C007FBD40C2508881E
:100F6000A843043D284308800D8812482840602586
:100F700008800888A84308800F48E1000A504118FB
:100F80004B602000FFF79EFF2000FFF78BFF002043
:100F900001E00120404270BD40420F00000C0040C3
:100FA0001B4100001C410000002C004200040040D6
:100FB00000300042FFF8FFFF500B002010B5164B29
:100FC000997B1A00C9060DD5597BC9060AD5134865
:100FD0000468002C19D010219A7B0A439A73197364
:100FE000002110E0927B0C4B92060ED55A7B9206A4
:100FF0000BD50A480468002C07D020219A7B0A43AD
:101000009A7319731F394068A047054B1B68002B62
:1010100001D0FFF7E3FB10BD002C0042500B002075
:101020008402002010B5164B997B1A00C9060DD515
:10103000597BC9060AD513488468002C19D01021A1
:101040009A7B0A439A731973002110E0927B0C4B30
:1010500092060ED55A7B92060BD50A488468002C5E
:1010600007D020219A7B0A439A7319731F39C068ED
:10107000A047054B1B68002B01D0FFF7AFFB10BD4D
:1010800000300042500B00208402002030B51400D4
:10109000002C0FD08568C3689D420BD08568013C49
:1010A0006B1C83604368013B2B400568EB5C0B7055
:1010B0000131EDE7101B30BDC26830B5436884686C
:1010C000121B9A4208D0C2680468013B551C1340A9
:1010D000C560E154002001E00120404230BD000025
:1010E00010B50100014800F0B1FF10BD202E000036
:1010F00010B500F0B1F9002010BD000010B50128B6
:1011000005DC0968084800F0A1FF01200BE04868F1
:1011100000F004FD04000100044800F097FF2000E7
:1011200000F0E4F9002010BD452E00006C2E0000F8
:10113000F0B585B003900C00032805DC096825484C
:1011400000F084FF244829E0486800F0E7FC06002E
:10115000A06800F0E3FC0500E06800F0DFFC012877
:1011600005D0022807D0002803D01C4816E007004D
:1011700002E0022700E00327039B042B11D0206923
:1011800000F0CCFC012805D0022805D0002808D0AA
:10119000134803E0072105E0062103E000F0D2FF39
:1011A00010E002210F4BF001C0183A0028430095CF
:1011B0000D4BFFF76FFD2A003100002804DA0B48C1
:1011C00000F044FF012003E0094800F03FFF002049
:1011D00005B0F0BD812E0000AF2E00001E2F0000D4
:1011E000442F000000440041E1100000682F00007F
:1011F000942F000070B50D00022805DC0968114825
:1012000000F024FF01261AE0486800F087FC040083
:10121000A86800F083FC05000B4BE001C0182843D0
:10122000FFF794FD2A0006002100002804D007489B
:1012300000F00CFF002602E0054800F007FF300038
:1012400070BDC046CA2F000000440041E22F0000DC
:10125000FD2F000070B50D00022805DC09680A4862
:1012600000F0F4FE01200DE0486800F057FC040097
:10127000A86800F053FC054BE401E4182043FFF795
:1012800085FD002070BDC046CA2F0000004400410B
:1012900070B50D00022805DC09680A4800F0D6FE8A
:1012A00001200DE0486800F039FC0400A86800F057
:1012B00035FC054BE401E4182043FFF757FD0020FF
:1012C00070BDC046CA2F00000044004170B50D003B
:1012D000022805DC09680A4800F0B8FE01200DE08C
:1012E000486800F01BFC0400A86800F017FC054BE0
:1012F000E401E4182043FFF741FD002070BDC04623
:10130000CA2F00000044004170B50D0016000228ED
:1013100004DC09680E4800F099FE16E0486800F009
:10132000FDFB0400A86800F0F9FB0500094BE00193
:10133000C01828433100FFF791FC0023984205DADA
:101340002A002100044800F081FE0123180070BD2E
:10135000CA2F0000004400411730000010B5FF22E2
:10136000FFF7D2FF10BD10B5FE22FFF7CDFF10BD75
:1013700010B50622FFF7C8FF10BD10B50722FFF712
:10138000C3FF10BD10B50222FFF7BEFF10BD10B5A0
:101390000022FFF7B9FF10BD10B5012805DC096870
:1013A000084800F053FE01200BE0486800F0B6FB4F
:1013B00004000100044800F049FE200000F08CF811
:1013C000002010BD452E00003F30000000B506484B
:1013D000A1B000F0B7FE054800F0B4FE80226946D7
:1013E000034800F025F9C046543000007130000079
:1013F0006C33000010B504000F485A3400F026FE8C
:1014000021000E4800F022FE21000D4800F01EFED3
:101410000C490D4800F01AFE0C4B0D485C432100AE
:10142000240CF534FF3400F011FE2100094800F0CF
:101430000DFE200010BDC0462034000032340000F4
:101440004C340000388E0000653400004855080018
:10145000793400009E34000073B51848FA2600F075
:1014600071FE0022FA23164DF60000965B00110073
:10147000280000F081F801242C616C61002801DA59
:10148000104810E0104800F05DFEFA230F4D009662
:101490005B0022000021280000F06EF82C616C61D6
:1014A000002805DA0A4800F04DFE0120404203E022
:1014B000084800F047FE002076BDC046B534000065
:1014C000600B0020CD340000EF340000780B0020CA
:1014D000043500002635000010B5FFF78BFF010032
:1014E000014800F065F810BD600B002010B5FFF753
:1014F00081FF0100014800F05BF810BD780B00206F
:1015000010B5FFF7A1F810BD184B194A196AF0B5CC
:101510000A408021C9030A4380211A62DA69C90599
:101520001202120A0A43DA610322C02500219446FE
:10153000FF27AD008A080F489200121860463E004F
:101540000840C000864054590131B44340268640CB
:10155000344354511C29EDD11A690C390A431A61DC
:101560005A69F131FF310A435A61F0BD00ED00E0E4
:10157000FFFF00FF00E100E0F8B50D0004001700D8
:101580001E006422094B0021280000F0A7F9002862
:1015900009DB069B2061E360642325606760A66029
:1015A0006361002001E001204042F8BD10270000E7
:1015B00010B50400C068884204D3A36808009942AB
:1015C00000D2180023696169584300F01BFA2179A1
:1015D00082B2206800F038F910BD00000B4B01000A
:1015E000186810B582689368013B9360002B05DA98
:1015F0009469A34207DBCBB20A2B04D01368581CB2
:101600001060197001E000F0CBFE10BD7C020020DC
:1016100010B53E20FFF7E2FF2020FFF7DFFF034B6E
:101620001B68986800F032FB10BDC0467C020020A9
:10163000F0B587B000AF386179617A60FFF7E8FFF5
:101640007D697A687B69013AEB1A9342F6DA764B48
:10165000186841684B68013B4B60002B04DA00F0CE
:101660007BFD002804DAE9E70B685A1C0A60187849
:101670000D2801D00A280ED100240D202C70FFF770
:10168000ADFF0A20FFF7AAFF7B69AB42D6D022004C
:10169000260020002DE0082801D07F280FD17B698B
:1016A000AB42CED00023013D2B700820FFF796FF00
:1016B0002020FFF793FF0820FFF790FFC1E7287075
:1016C0006C1CFFF78BFF2500BBE7222C15D1597846
:1016D000002925D05C2927D001331978A142F6D101
:1016E000597820291CD801361978002923D0187080
:1016F00001331C78202CF7D9E7E71900272C07D1F4
:10170000E5E74B1C497822290AD02029EBD919009A
:101710001C785C2CF5D1591C5B780132002BF0D180
:10172000424800F00FFD89E7991C9B780132002B9D
:10173000F6D00B00D1E7002E80D06B466846FB60E8
:10174000B3000E33DB08DB00C31A9D466C46B300C2
:1017500019517B691878002801D10133FAE7222852
:1017600001D0272800D101338800235018780028A1
:1017700001D00133FAE701318E42EBD12000002A7B
:1017800016D00368002B13D0197800290ED05C29DD
:101790000AD119000D78002D03D04D780D7001315C
:1017A000F8E7013A002A01D00133EDE70430E6E71B
:1017B0003B69002B10D023683D69BB602868002876
:1017C0000AD0B96800F044FD002803D1AB68002BB3
:1017D00009D101E00C35F1E72168154800F038FD2A
:1017E000002804D018E021003000984718E0114D7F
:1017F000114A1249280000F029FC114800F0A2FC0F
:101800003B691C1E0CD02168002909D062682800A1
:1018100000F01CFC0C34F6E721680A4800F016FCC6
:10182000FB689D460AE7C0467C0200203B3500006D
:10183000543500006D350000593500006535000055
:10184000773500009F35000010B5022915D81C23FC
:1018500058430A4CC900091861184B6801330CD071
:10186000497A00590B0010339B00C3185A6080233B
:101870005B008B4082681342FCD110BDC035000074
:101880001C2302215843034BC25813680B431360B7
:101890007047C046C03500001C23802258430C4BC3
:1018A0005200C3580B481B059B0F9A40016A023B2C
:1018B0000A4302625A42534180221A33D20113432F
:1018C000054A9BB253805378DB09FCD17047C04670
:1018D000C035000000040040000C0040F0B587B0A7
:1018E0000600029103930020012E78D819003D488C
:1018F000514300F087F8041E71D03B4B98420ED83C
:101900007F2810D81F2812D80B2813D8052814D8E0
:10191000451EEDB2022812D9042402250FE08024CE
:101920000725E4000BE080240625640007E040243E
:10193000052504E01024042501E0082403251C23C8
:1019400073432A4A191D1C33D31857180493059260
:101950003B680193013307D000210198FFF77EF91E
:1019600039790198FFF75EF9049B0837BB42EFD144
:101970003000FFF791FF1C237343059AD3580122CF
:101980001A6098681040FCD1029A002A05D0012AFA
:1019900025D16A46127A5A7101E001221A71042295
:1019A00099681142FCD1E0222D02D200154002229A
:1019B0001D60DA633E3299681142FCD1039A013A04
:1019C0001A64802299681142FCD103990548614349
:1019D00000F018F804003000FFF752FF200007B0B5
:1019E000F0BDC046006CDC02FF010000C035000005
:1019F00002B4714649084900095C49008E4402BCA2
:101A00007047C046002243088B4274D303098B42BF
:101A10005FD3030A8B4244D3030B8B4228D3030CBE
:101A20008B420DD3FF22090212BA030C8B4202D360
:101A30001212090265D0030B8B4219D300E0090A88
:101A4000C30B8B4201D3CB03C01A5241830B8B4291
:101A500001D38B03C01A5241430B8B4201D34B037A
:101A6000C01A5241030B8B4201D30B03C01A5241DF
:101A7000C30A8B4201D3CB02C01A5241830A8B4264
:101A800001D38B02C01A5241430A8B4201D34B024D
:101A9000C01A5241030A8B4201D30B02C01A5241B1
:101AA000CDD2C3098B4201D3CB01C01A5241830965
:101AB0008B4201D38B01C01A524143098B4201D39F
:101AC0004B01C01A524103098B4201D30B01C01ACA
:101AD0005241C3088B4201D3CB00C01A5241830844
:101AE0008B4201D38B00C01A524143088B4201D371
:101AF0004B00C01A5241411A00D2014652411046D1
:101B00007047FFE701B5002000F006F802BDC046AF
:101B10000029F7D076E770477047C04610B50A2213
:101B2000002100F031FC10BDF7B58A8905000C00DA
:101B300013075AD44B68002B02DC0B6C002B19DD09
:101B4000E76A002F16D000232E682B6080235B01EC
:101B50001A4001D0606D14E00123216A2800B847C3
:101B6000431C0ED12B68002B0BD01D2B01D0162B44
:101B700002D12E6000205AE04022A3891343A381A2
:101B800055E0A3895B0706D56368C01A636B002B19
:101B900001D0236CC01A00230200216A2800E76AE2
:101BA000B847A389421C06D129681D293AD8204A82
:101BB000CA40D20736D50022626022692260DB0467
:101BC00005D5431C02D12B68002B00D16065616BE9
:101BD0002E600029CED023004433994202D0280041
:101BE00000F088F90020606321E00F69002FC1D068
:101BF0000B680F60DB1B01930023920700D14B6938
:101C0000A36003E0019B3F181B1A0193019B002B6B
:101C1000B0DD019B3A00216A2800A66AB04700287F
:101C2000F0DCA389402201201343A3814042FEBD82
:101C3000010040200B6970B505000C00002B01D19C
:101C400000201CE0002804D08369002B01D100F0A3
:101C500073F80B4B9C4201D16C6808E0094B9C4225
:101C600001D1AC6803E0084B9C4200D1EC680C2227
:101C7000A35E002BE4D021002800FFF755FF70BDC4
:101C8000F8350000183600003836000010B5011E87
:101C900005D1054B0549186800F0DCF803E0044B5A
:101CA0001868FFF7C7FF10BD5C360000351C000048
:101CB0007C02002010B5024900F0CCF810BDC046EF
:101CC000351C0000002310B50400036043608360EE
:101CD00081814366C28103614361836119000822E7
:101CE0005C3000F0FFF8054B24626362044BA36292
:101CF000044BE362044B236310BDC046B9210000CE
:101D0000E1210000192200004522000070B568257D
:101D10004B1E5D430E002900743100F037F9041E9C
:101D200008D000212A00016046600C30A0606832B3
:101D300000F0D8F8200070BD836913B50400002BB3
:101D400028D18364C3640365134B144A1B68826201
:101D50000193984201D101238361200000F020F813
:101D60006060200000F01CF8A060200000F018F86F
:101D70000022E06004216068FFF7A4FF012209212E
:101D8000A068FFF79FFF02221221E068FFF79AFF89
:101D90000123A36113BDC0465C360000B51C0000E2
:101DA000F8B51D4B06001D68AB69002B02D1280059
:101DB000FFF7C2FF4835AC686B68013B05D40C22C5
:101DC000A75E002F10D06834F7E72B68002B01D0F6
:101DD0002D68F0E704213000FFF798FF2860002805
:101DE000F6D10C23336016E0012320005B42E3812F
:101DF0000233A38167662760A76067602761676118
:101E0000A7615C300822390000F06CF8200067639D
:101E1000A763A764E764F8BD5C360000F7B54830F7
:101E2000040000260191002C12D0A5686768013FCC
:101E30000CD4AB89012B07D90E22AB5E013303D042
:101E40002800019B984706436835F0E72468EAE7D5
:101E50003000FEBDF7B504000700002601914834AC
:101E6000002C16D06368A5680093009B013B00938B
:101E70000DD4AB89012B08D90E22AB5E013304D0FF
:101E800029003800019B984706436835EDE7246830
:101E9000E6E73000FEBD00000E4B70B500251E00C9
:101EA0000D4CE41AA410A54204D0AB00F358984797
:101EB0000135F8E7FEF7FCF8084B00251E00084C3A
:101EC000E41AA410A54204D0AB00F358984701359A
:101ED000F8E770BD94370000943700009437000095
:101EE0009437000003008218934202D01970013326
:101EF000FAE7704770B50500002944D00C1F23682D
:101F0000002B00DAE418280000F07CFB1E4A13685E
:101F10001100002B02D16360146031E0A3420DD99F
:101F20002268A018834203D118685B688218226077
:101F300063600C6024E0A24203D813005A68002AB0
:101F4000F9D11E689819A0420BD121687118581850
:101F50001960824214D110685268411819605A60A1
:101F60000EE0A04202D90C232B6009E02168601822
:101F7000824203D1106852684118216062605C603F
:101F8000280000F040FB70BD940B0020032370B5C7
:101F9000CD1C9D43083506000C2D01D20C2501E017
:101FA000002D01DBA94202D90C23336048E0300048
:101FB00000F028FB234B1C681A002100002913D0D5
:101FC0000B685B1B0DD40B2B02D90B60CC181EE0E9
:101FD0008C4202D1636813601AE04B6863600C00A6
:101FE00016E00C004968E9E7174C2368002B03D181
:101FF0003000FEF763F8206029003000FEF75EF83D
:10200000431C18D00323C41C9C43A0420DD125605F
:10201000300000F0F8FA200007220B30231D904317
:10202000C31A0ED05A42E2500BE0211A3000FEF7DC
:1020300045F8431CEBD10C233000336000F0E3FA89
:10204000002070BD940B0020900B00200FB40B4BB0
:1020500013B51C68002C05D0A369002B02D1200009
:10206000FFF76AFE05AB049AA1682000019300F017
:10207000F3FA16BC08BC04B01847C0467C02002026
:1020800070B505000E00002804D08369002B01D133
:10209000FFF752FEAB69AC68002B02D12800FFF7B6
:1020A0004BFE254B9C4201D16C6808E0234B9C42BF
:1020B00001D1AC6803E0224B9C4200D1EC68A389BB
:1020C0001B0702D52369002B11D12100280000F045
:1020D000BFF900280BD0012040422BE0013B013624
:1020E000A360002B08DB23685A1C2260197031782A
:1020F000A3680029F2D10BE0A269934201DB0A290F
:10210000F1D12200280000F04BF9431CEFD1E2E7A7
:10211000013BA360002B08DA22000A31280000F0FE
:102120003FF9431CD7D00A2004E00A2023685A1C38
:102130002260187070BDC046F835000018360000E7
:102140003836000010B5034B01001868FFF798FF00
:1021500010BDC0467C02002070B505000C000028B0
:1021600004D08369002B01D1FFF7E6FD0F4B9C42A1
:1021700001D16C6808E00E4B9C4201D1AC6803E0D1
:102180000C4B9C4200D1EC682100280000F01CFDA3
:10219000002807D16368013B636023685A1C2260F2
:1021A000187801E00120404270BDC046F8350000BB
:1021B000183600003836000070B50C000E25495F57
:1021C000FDF79AFF002803DB636D1B18636503E0CE
:1021D000A289024B1340A38170BDC046FFEFFFFFF1
:1021E000F8B51F008B8905000C001600DB0505D52E
:1021F0000E23C95E00220223FDF78FFFA289054B43
:1022000028001340A38132000E23E15E3B00FDF75E
:1022100079FFF8BDFFEFFFFF70B50C000E25495F99
:10222000FDF77BFFA389421C03D1054A1340A3811C
:1022300004E0802252011343A381606570BDC04653
:10224000FFEFFFFF10B50E23C95EFDF761FF10BD64
:1022500002780B78002A03D0013001319A42F7D07E
:10226000D01A7047F0B51E00454B87B01B6801922D
:10227000029308220B00059003911C7802995D1CC3
:1022800009194878104001D02B00F6E72D2C04D115
:102290009D1C5C780123009304E000902B2C01D15D
:1022A0005C789D1C002E02D0102E0AD162E0302CEA
:1022B0005ED120222B789343582B54D110266C7872
:1022C0000235009F31007B1E9F412E4BFF183800C6
:1022D000FFF71EFC380004913100FFF793FB002349
:1022E0000322070094461800029A1219517804221A
:1022F000114201D0303C07E06246114017D037222E
:10230000012900D02032A41AA64210DD5A1C0BD09D
:10231000B84207D802D1049B9C4203DC70430123DE
:10232000201801E001235B422C780135DCE75A1CC0
:102330000BD10098059A431E9841124BC0182223D6
:102340001360019B002B0AD117E0009A002A00D0ED
:102350004042019A002A10D0039A002B00D06A1E36
:10236000019B1A6009E03024002EAAD10826A8E7B4
:102370000A26A6E7302C9CD0A3E707B0F0BDC046E4
:1023800080020020FFFFFF7F10B513000A0001004C
:1023900002480068FFF766FF10BDC0467C020020BF
:1023A000F8B505000F001400002804D08369002B45
:1023B00001D1FFF7C1FC234B9C4201D16C6808E0BE
:1023C000214B9C4201D1AC6803E0204B9C4200D1E0
:1023D000EC68A369A360A3891B070AD52369002BB6
:1023E00007D023682269FEB2981A636998420FDB0E
:1023F00008E02100280000F02BF80028F1D001208F
:1024000040421DE021002800FFF714FC0028F6D10F
:10241000A3680130013BA36023685A1C22601F702F
:102420006369984205D0A3893000DB0708D50A2EDE
:1024300006D121002800FFF7FDFB0028DFD1300086
:10244000F8BDC046F83500001836000038360000E8
:10245000364B70B51D6806000C00002D05D0AB6929
:10246000002B02D12800FFF767FC314B9C4201D1C1
:102470006C6808E02F4B9C4201D1AC6803E02E4B06
:102480009C4200D1EC680C22A35E9AB2110723D4BF
:10249000D10607D409220120326037321343A381C9
:1024A000404242E0530713D5616B002908D0230056
:1024B0004433994202D03000FFF71CFD00236363D0
:1024C0002422A3899343A3810023636023692360AB
:1024D0000822A3891343A3812369002B0BD1A023D6
:1024E0008022A1899B0092000B40934203D02100DF
:1024F000300000F049F80123A289134005D00023E1
:10250000A36063695B42A36103E0920700D463693F
:10251000A36000202369834207D10C22A35E1A0620
:1025200003D540221343A381013870BD7C020020F3
:10253000F8350000183600003836000070B50E007F
:102540001D000E23C95E90B01400002906DA002396
:102550002B60B3891B060FD540230FE001AAFDF7BE
:10256000E1FD0028F3DBF023029A1B021340054A29
:102570009B185A4253412B608023DB0000202360CC
:1025800010B070BD00E0FFFFF7B502268B89050093
:102590000C00334210D101AB6A46FFF7CFFF009920
:1025A00007002800FFF7F2FC00280CD10C22A35EE4
:1025B0009A0523D43343A381230047332360236147
:1025C000012363611AE080220D4BAB62A389206076
:1025D0001343A381009B20616361019B002B0AD000
:1025E0000E23E15E2800FDF7A2FD002803D00122A2
:1025F000A3891343A381A3891F43A781F7BDC046C5
:10260000B51C000070477047936810B5013B93609C
:10261000002B05DA9469A34208DBCBB20A2B05D064
:102620001368581C10601970C8B201E0FFF7B8FEBB
:1026300010BDF8B506000F001400D518AC4208D044
:1026400021783A003000FFF7DFFF0134431CF5D159
:1026500000E00020F8BD0000F0B59FB006000F00BC
:1026600002920593002804D08369002B01D1FFF763
:1026700063FB7F4B9F4201D1776808E07D4B9F420F
:1026800001D1B76803E07C4B9F4200D1F768BB895A
:102690001B070AD53B69002B07D0002306AD6B61F1
:1026A00020336B761033AB763DE039003000FFF716
:1026B000CFFE0028F1D001204042D6E0059A111D3E
:1026C00012680591002A00DA7FE00992013423782C
:1026D0002E2B00D18DE021780322684800F006FB04
:1026E000002807D0654B2A68C01A40238340134353
:1026F0002B6001342178631C0622614802932976FD
:1027000000F0F4FA002800D19DE05E4B002B00D0D1
:1027100090E00722059B07339343083305936B69C9
:10272000039A9B186B61029C2378002B04D1029BB7
:10273000E31A049312D003E0252BF8D00134F3E719
:10274000049B029A39003000FFF773FF431C00D14D
:1027500086E06A69049B944663446B612378002B8E
:102760007ED00122002352426A6002A954325218DC
:1027700001342B60EB60AB601370AB6521780522F0
:10278000414800F0B3FA002808D03F4B2A68C01A2D
:102790000123834013432B600134EFE72B68DA06F3
:1027A00004D55322202102A8121811701A0704D54B
:1027B00053222B2102A81218117022782A2A00D144
:1027C0007CE7099B00200A2105E05242EA600222D0
:1027D00013432B607AE72278303A092A04D84B4316
:1027E00001349B180120F6E7002800D16FE7099318
:1027F0006DE763782A2B0AD1059B02341A1D1B68EA
:102800000592002B01DA01235B42079363E7002363
:102810000A201A0001346B6021783039092904D864
:102820004243013452180123F6E7002B00D152E74E
:10283000079250E705AB00933A00144B2900300093
:1028400000E000BF07E005AB00933A000F4B290002
:10285000300000F08BF80390039B013300D05EE75B
:10286000BB895B0600D526E70B981FB0F0BDC046BC
:10287000F8350000183600003836000067370000D1
:102880006B370000000000006137000033260000B5
:10289000F7B5170001938A680B6900900C0093420A
:1028A00000DA130022003B6043321278002A01D084
:1028B00001333B6023689B0602D53B6802333B60D3
:1028C000062523681D401ED0230043331B785A1E63
:1028D0009341226892061CD53020E11843310870DC
:1028E00021005A1C45310978A21843320233117075
:1028F0000FE022000123193201990098089EB04789
:10290000431C0ED00135E3683A689B1A9D42F0DB08
:10291000DAE72200019943320098089DA847431C3A
:1029200002D10120404220E006232068E1683A6895
:1029300003400025042B03D18D1AEB43DB171D4008
:10294000A3682269934201DD9B1AED180027BD425E
:102950000AD0220001231A3201990098089EB0473C
:10296000431CDED00137F2E70020FEBDF0B58BB08E
:1029700006920A0043320793059004920A7E0C00E7
:10298000109B6E2A00D1ABE011D8632A22D009D85F
:10299000002A00D1B5E0582A00D0C5E045310A70C0
:1029A000814A4FE0642A1DD0692A1BD0BCE0732AFB
:1029B00000D1AAE009D86F2A29D0702A00D0B3E04C
:1029C000202209680A43226037E0752A1FD0782A3E
:1029D00033D0A9E00E001A684236111D1960136841
:1029E0003370A4E021681A68080606D4490604D5A5
:1029F000111D19600023D55E02E0111D19601568D4
:102A0000002D3BDA2D23049A6D42137036E02168C5
:102A10001A68080606D4490604D51568111D196000
:102A2000ADB202E0111D196015685F4B227E039361
:102A300008276F2A1DD00A271BE022007821453283
:102A400011705A4A19680392081D226818600D68AF
:102A5000100602D4500600D5ADB2D30702D520230C
:102A60001A4322601027002D03D1202322689A43A5
:102A700022602300002243331A7002E00A274A4BE7
:102A800003936368A360002B09DB04222168914350
:102A90002160002D05D1049E002B11D07BE0002D7C
:102AA00079D0049E28003900FFF732F8039B013EDD
:102AB0005B5C280033703900FEF7A4FF051EF1D1DE
:102AC000082F09D12368DB0706D563682269934282
:102AD00002DC3023013E3370049B9B1B23612BE0FF
:102AE00009681A68080607D4490605D5111D19603A
:102AF0001368A28A1A8004E0111D196013686269C4
:102B00001A600023049E236116E01A68111D1960E3
:102B1000166800216268300000F0E8F8002801D053
:102B2000801B6060636803E0260042363270012338
:102B300023610023049A1370079B09AA00932100C4
:102B4000069B0598FFF7A4FE431C02D101204042DA
:102B500027E02369320006990598079DA847431C82
:102B6000F4D0236800259B070FD4099BE0689842A6
:102B700017DA180015E0220001231932069905988A
:102B8000079EB047431CE1D00135E368099A9B1AC0
:102B90009D42F0DBE9E72600039B42361B78337049
:102BA0008EE70BB0F0BDC0467237000083370000DF
:102BB000092310B5828913400022092B02D1FFF7A7
:102BC00065F80200100010BDF8B505000C000028E3
:102BD00004D08369002B01D1FFF7AEF83E4B9C4235
:102BE00001D16C6808E03D4B9C4201D1AC6803E028
:102BF0003B4B9C4200D1EC68002363600C23E25EF7
:102C000093B2990664D459071AD4D90605D4092376
:102C10002B6037331A43A2815AE0082633420AD088
:102C200021002800FFF706F8002851D1A389A060F1
:102C3000B343A381A0610422A3891343A38112E0BB
:102C4000616B00290FD023004433994202D0280041
:102C5000FFF750F90020236C60636360834202D069
:102C6000E36B236036E02369002B03D121002800A9
:102C7000FFF78AFC0C23E75EBEB2B3070FD0012337
:102C8000A381184B18491868FFF7C8F80923A781D2
:102C90003340092B03D121002800FEF745FF2369AB
:102CA0002269236028006369216A656AA8470200D7
:102CB0006060002082420DDCA389824204D1202280
:102CC0001343A381013805E0402213436060A381D0
:102CD00001204042F8BDC046F8350000183600001B
:102CE000383600005C360000B12B0000C9B28218F3
:102CF000904204D003788B4202D00130F8E70020E4
:102D000070474E4D492048414E444C455200484181
:102D10005244204641554C542048414E444C455263
:102D20000044554D4D592048414E444C4552002ACF
:102D30002A2A2052494F54206B65726E656C2070B0
:102D4000616E69633A0A25730A0A002A2A2A2072E8
:102D500065626F6F74696E672E2E2E0A0A006D61B0
:102D6000696E28293A205468697320697320524992
:102D70004F5421202856657273696F6E3A203230A5
:102D800031362E31302D646576656C2D3434382D16
:102D90006734623137382D6461726A7573682D54F7
:102DA00068696E6B5061642D573533302D4845414D
:102DB00044290A0069646C65006D61696E00000059
:102DC00000080042054400410444004103010000A2
:102DD000001C00421744004116440041030100005A
:102DE000FF01FFFF04050607FF090A0B0C0D0E0F7C
:102DF000FF010203FFFF06070C0DFF0F08FF0A0B80
:102E000000FF0203FFFFFFFFFFFFFFFFFFFFFFFFCA
:102E10000001FFFFFFFF0607FFFFFFFF08FFFFFFA7
:102E2000494E543A2065787465726E616C20696E03
:102E3000746572727570742066726F6D2070696E41
:102E40002025690A0075736167653A202573203C67
:102E5000616E676C652028696E74656765722920EC
:102E60002D39302E2E2E3930203E0A00696E206D0D
:102E70006F76655F792C2074656D703A2025640A41
:102E80000075736167653A202573203C706F72741A
:102E90003E203C70696E3E203C666C616E6B3E204D
:102EA0005B70756C6C5F636F6E6669675D0A0009C5
:102EB000666C616E6B3A0A09303A2066616C6C6927
:102EC0006E670A09313A20726973696E670A0932BE
:102ED0003A20626F74680A0970756C6C5F636F6E7C
:102EE0006669673A0A09303A206E6F2070756C6C1B
:102EF000207265736973746F7220286465666175EA
:102F00006C74290A09313A2070756C6C2075700A4E
:102F100009323A2070756C6C20646F776E006572B0
:102F2000726F723A20696E76616C69642076616CAA
:102F3000756520666F722061637469766520666CC2
:102F4000616E6B006572726F723A20696E76616CA9
:102F500069642070756C6C207265736973746F722C
:102F6000206F7074696F6E006572726F723A2069BB
:102F70006E69745F696E74206F66204750494F5FB9
:102F800050494E2825692C20256929206661696CE5
:102F900065640A004750494F5F50494E2825692C07
:102FA00020256929207375636365737366756C6C7E
:102FB0007920696E697469616C697A6564206173EE
:102FC0002065787420696E740A0075736167653ACC
:102FD000202573203C706F72743E203C70696E3EF9
:102FE0000A004750494F5F50494E2825692E253029
:102FF00032692920697320484947480A00475049E7
:103000004F5F50494E2825692E25303269292069A5
:1030100073204C4F570A004572726F7220746F20F4
:10302000696E697469616C697A65204750494F5FC0
:1030300050494E2825692C2025303269290A00691B
:103040006E206D6F76655F782C2074656D703A2008
:1030500025640A004750494F2070657269706865A1
:1030600072616C2064726976657220746573740A8B
:1030700000496E207468697320746573742C207025
:10308000696E732061726520737065636966696536
:103090006420627920696E746567657220706F7252
:1030A0007420616E642070696E206E756D62657249
:1030B000732E0A536F20696620796F757220706CC9
:1030C0006174666F726D2068617320612070696E33
:1030D00020504130312C2069742077696C6C20625B
:1030E0006520706F72743D3020616E642070696E6F
:1030F0003D312C0A5043313420776F756C64206267
:103100006520706F72743D3220616E642070696E4C
:103110003D3134206574632E0A0A4E4F54453A20DF
:103120006D616B65207375726520746865207661CA
:103130006C75657320796F75207573652065786986
:103140007374206F6E20796F757220706C61746675
:103150006F726D21205468650A2020202020206293
:1031600065686176696F7220666F72206E6F742079
:103170006578697374696E6720706F7274732F70ED
:10318000696E73206973206E6F7420646566696E62
:1031900065642100696E69745F6F757400696E699A
:1031A00074206173206F7574707574202870757346
:1031B000682D70756C6C206D6F64652900696E698F
:1031C000745F696E00696E697420617320696E7046
:1031D000757420772F6F2070756C6C207265736921
:1031E00073746F7200696E69745F696E5F707500E9
:1031F000696E697420617320696E707574207769D7
:1032000074682070756C6C2D757000696E69745FE0
:10321000696E5F706400696E697420617320696E05
:1032200070757420776974682070756C6C2D646F8C
:10323000776E00696E69745F6F6400696E697420EF
:103240006173206F757470757420286F70656E2DB2
:10325000647261696E20776974686F757420707527
:103260006C6C207265736973746F722900696E6982
:10327000745F6F645F707500696E6974206173209C
:103280006F757470757420286F70656E2D6472612F
:10329000696E20776974682070756C6C2D75702963
:1032A00000696E69745F696E7400696E697420618B
:1032B000732065787465726E616C20494E54207776
:1032C0002F6F2070756C6C207265736973746F72E8
:1032D000007265616400726561642070696E2073BC
:1032E000746174757300736574007365742070691C
:1032F0006E20746F204849474800636C6561720016
:103300007365742070696E20746F204C4F57007481
:103310006F67676C6500746F67676C652070696EB6
:1033200000696E69745F68616C00696E697420740D
:103330006865207048414C006D6F76655F78006D60
:103340006F76652078206279206E206465677265EB
:1033500065006D6F76655F79006D6F766520792009
:103360006279206E206465677265650094310000A3
:103370009D3100008F130000BD310000C5310000F9
:1033800085130000E5310000F03100007B130000E0
:103390000B320000163200007113000033320000BF
:1033A0003B320000671300006D32000078320000ED
:1033B0005D130000A1320000AA32000031110000AC
:1033C000D1320000D6320000F5110000E6320000D4
:1033D000EA32000091120000FA32000000330000CF
:1033E000CD1200000F33000016330000551200000C
:1033F000213300002A330000F110000038330000B0
:103400003F3300009913000052330000593300008D
:10341000FD1000000000000000000000000000009F
:10342000696E207048414C2C206765745F706F7323
:103430000A006265666F7265206F66667365742C3C
:1034400020616E676C653A2025640A0061667465C8
:1034500072206F66667365742C20616E676C653AC6
:103460002025640A0050455243454E545F414E4763
:103470004C453A20256C750A0046496E616C2070F7
:103480006F732063616C63656420286D6973736971
:103490006E6720353030293A20256C750A00706F30
:1034A000736974696F6E207363616C65643A20257B
:1034B0006C75200A00496E697469616C697A696E7D
:1034C00067207048414C20736572766F00457272B8
:1034D0006F7273207768696C6520696E69746961C1
:1034E0006C697A696E6720736572766F203100535C
:1034F0006572766F205820696E697469616C697AAB
:1035000065642E004572726F7273207768696C650E
:1035100020696E697469616C697A696E6720736588
:1035200072766F203200536572766F205920696E73
:10353000697469616C697A65642E007368656C6C86
:103540003A20696E636F72726563742071756F746F
:10355000696E670068656C700044657363726970BA
:1035600074696F6E00436F6D6D616E6400252D325E
:1035700030732025730A002D2D2D2D2D2D2D2D2D51
:103580002D2D2D2D2D2D2D2D2D2D2D2D2D2D2D2D6B
:103590002D2D2D2D2D2D2D2D2D2D2D2D2D2D007342
:1035A00068656C6C3A20636F6D6D616E64206E6F40
:1035B0007420666F756E643A2025730A000000005F
:1035C000002400420644004104000000074400417A
:1035D00004010000FFFFFFFF000200000020004286
:1035E00010440041050000001244004105020000A3
:1035F000134400410503000000000000000000002B
:1036000000000000000000000000000000000000BA
:1036100000000000000000000000000000000000AA
:10362000000000000000000000000000000000009A
:10363000000000000000000000000000000000008A
:10364000000000000000000000000000000000007A
:103650000000000000000000430000001C020020E9
:103660000020202020202020202028282828282052
:10367000202020202020202020202020202020204A
:1036800020881010101010101010101010101010B2
:1036900010040404040404040404041010101010A2
:1036A000101041414141414101010101010101016C
:1036B00001010101010101010101010110101010BE
:1036C000101042424242424202020202020202023E
:1036D0000202020202020202020202021010101092
:1036E00020000000000000000000000000000000BA
:1036F00000000000000000000000000000000000CA
:1037000000000000000000000000000000000000B9
:1037100000000000000000000000000000000000A9
:103720000000000000000000000000000000000099
:103730000000000000000000000000000000000089
:103740000000000000000000000000000000000079
:103750000000000000000000000000000000000069
:1037600000232D302B2000686C4C006566674546B1
:1037700047003031323334353637383941424344EB
:10378000454600303132333435363738396162637B
:043790006465660006
:103794009C0B00205C03002040000000000000009F
:1037A40000000000B42D0000B92D0000000000004E
:1037B400F83500001836000038360000000000001C
:1037C4000000000000000000000000005836000067
:1037D40000000000000000000000000000000000E5
:1037E40000000000000000000000000000000000D5
:1037F40000000000000000000000000000000000C5
:103804000000000000000000000000001C02002076
:04381400603600001A
:04000003000003D91D
:00000001FF
